:1000000012C021C020C049C01EC01DC01CC01BC0E2
:100010001AC019C018C017C016C015C014C013C02C
:1000200012C011C010C011241FBECFE5D4E0DEBF46
:10003000CDBF20E0A0E6B0E001C01D92A536B2071A
:10004000E1F7A1D1CBC3DCCFCF93C82F4BD0C330C6
:10005000A1F028F4C13049F0C230D9F417C0C5303E
:1000600099F0A0F0C630A9F411C081E05DD060E144
:1000700080E251D06FEF80EC05C060E280E14BD0B0
:1000800064EB88E841D005C060E1F8CF60E080E033
:1000900042D0C0936000CF9108951F920F920FB687
:1000A0000F9211248F939F93AF93BF938091610020
:1000B00090916200A0916300B09164000196A11D2F
:1000C000B11D8093610090936200A0936300B09390
:1000D0006400BF91AF919F918F910F900FBE0F90D1
:1000E0001F901895109261001092620010926300A8
:1000F0001092640008956091610070916200809197
:10010000630090916400089590E09BBD8ABD70E00B
:1001100079BD68BD089592B39F7C892B82BB88B35B
:100120008F7C682B68BB0895811102C0C09803C002
:10013000813019F4C09A92980895833011F4C09ACE
:1001400003C0823011F4C098929A089522B330E42B
:10015000839FC00111242F7B822B82BB08958111C4
:1001600004C0611102C0A99809C0979894B3936024
:1001700094BB95B3936095BB8823A9F3611101C02B
:10018000A898089589E185BD8EE683BD89B780680A
:1001900089BF1BB81AB886E880BD9FEC99B99FE368
:1001A00097BB94EF91BB91EA9FBD92E09EBD86B94B
:1001B000979880E0CBDF61E081E0D1DF60E080E014
:1001C000CEDF81E0B1DF60E280E2A5DF1BBC1ABCBC
:1001D00019BC18BC7894089523E427B9369A349B47
:1001E000FECF349A44B125B130E0322F2227240FBC
:1001F000311DFC013183208322E427B9369A349BD8
:10020000FECF349A44B125B130E0322F2227240F9B
:10021000311DFC01338322830895FC0194B39C7F3C
:1002200094BB979A81E487B9369A349BFECF349A6F
:1002300084B125B130E0322F2227280F311D3183C0
:10024000208380E487B9369A349BFECF349A84B1F8
:1002500025B130E0322F2227280F311D338322832E
:10026000089528E02AB9FC01860F8E1729F05D9BBE
:10027000FCCF91919CB9F9CF5E9BFECF0895CF93AF
:1002800020E12AB94115510519F4282FFC0122C09B
:10029000782FFC0120E030E0CE2FC71BC61768F492
:1002A000D90111962417350738F45F9B03C02CB190
:1002B0002193F0CF9D01F2CF9D014217530768F4BF
:1002C00024E5FC01208309C0861738F45F9BFCCF2E
:1002D0008CB181938E2F821BF7CFCF910895939885
:1002E0008B9885B7837F85BF8BB780688BBF089558
:1002F0008BB78F778BBF08951092610010926200C8
:10030000109263001092640090E0A0E0B0E0409191
:100310006100509162006091630070916400481721
:1003200059076A077B0798F308958B9A939A84E498
:1003300087B98AE0E1DF369A349BFECF349A84B1E4
:1003400065B1939870E0762F6627680F711D80E085
:1003500090E053D19B01AC0160E070E080E894E450
:10036000B8D020E030E040E85FE34ED020E030E05D
:100370004CE752E4D0D120E030E040E05FE345D0EC
:1003800010D1862F0895FEDE81E05EDE8091600050
:100390008330D9F028F4813049F0823071F0F8CF01
:1003A000853019F1D0F0863041F1F2CFBEDF8823DD
:1003B00069F382E0B9DE82E0E8CF9DDE603A7C48F6
:1003C000810591051CF383E0E0CF95DE603479412F
:1003D00081409105DCF284E0D8CF8DDE603A7C4824
:1003E000810591059CF285E0D0CF85DE60347941AE
:1003F000814091055CF286E0C8CF7DDE603A7C48A2
:10040000810591051CF2C0CF5058BB27AA270ED0FA
:1004100048C139D130F03ED120F031F49F3F11F482
:100420001EF42EC10EF4E095E7FB24C1E92F4AD15A
:1004300080F3BA17620773078407950718F071F401
:100440009EF562C10EF4E0950B2EBA2FA02D0B0184
:10045000B90190010C01CA01A0011124FF27591B09
:1004600099F0593F50F4503E68F11A16F040A22F0F
:10047000232F342F4427585FF3CF46953795279580
:10048000A795F0405395C9F77EF41F16BA0B620B7F
:10049000730B840BBAF09150A1F0FF0FBB1F661FC6
:1004A000771F881FC2F70EC0BA0F621F731F841F09
:1004B00048F4879577956795B795F7959E3F08F02F
:1004C000B3CF9395880F08F09927EE0F97958795EE
:1004D00008950CD0E6C0DED040F0D5D030F021F445
:1004E0005F3F19F0C7C0511110C1CAC0EBD098F3DB
:1004F0009923C9F35523B1F3951B550BBB27AA27A5
:1005000062177307840738F09F5F5F4F220F331F16
:10051000441FAA1FA9F333D00E2E3AF0E0E830D0E2
:1005200091505040E695001CCAF729D0FE2F27D0E5
:10053000660F771F881FBB1F261737074807AB07B3
:10054000B0E809F0BB0B802DBF01FF2793585F4F28
:100550002AF09E3F510568F08DC0D7C05F3FECF395
:10056000983EDCF3869577956795B795F7959F5FED
:10057000C9F7880F911D9695879597F90895E1E041
:10058000660F771F881FBB1F621773078407BA07A0
:1005900020F0621B730B840BBA0BEE1F88F7E095FB
:1005A000089598D088F09F5790F0B92F9927B751A8
:1005B000A0F0D1F0660F771F881F991F1AF0BA9527
:1005C000C9F712C0B13081F09FD0B1E008959CC04E
:1005D000672F782F8827B85F39F0B93FCCF386951D
:1005E00077956795B395D9F73EF49095809570957A
:1005F00061957F4F8F4F9F4F0895E89409C097FBF7
:100600003EF490958095709561957F4F8F4F9F4FE9
:100610009923A9F0F92F96E9BB279395F69587952D
:1006200077956795B795F111F8CFFAF4BB0F11F4F0
:1006300060FF1BC06F5F7F4F8F4F9F4F16C0882397
:1006400011F096E911C0772321F09EE8872F762FCD
:1006500005C0662371F096E8862F70E060E02AF00E
:100660009A95660F771F881FDAF7880F96958795FA
:1006700097F9089597F99F6780E870E060E0089522
:100680009FEF80EC089500240A94161617061806AA
:100690000906089500240A94121613061406050686
:1006A0000895092E0394000C11F4882352F0BB0F17
:1006B00040F4BF2B11F460FF04C06F5F7F4F8F4F7A
:1006C0009F4F089557FD9058440F551F59F05F3FB5
:1006D00071F04795880F97FB991F61F09F3F79F064
:1006E00087950895121613061406551FF2CF4695E6
:1006F000F1DF08C0161617061806991FF1CF869568
:100700007105610508940895E894BB27662777274B
:10071000CB0197F908950BD0C4CFB5DF28F0BADF2D
:1007200018F0952309F0A6CFABCF1124EECFCADF86
:10073000A0F3959FD1F3950F50E0551F629FF001F4
:10074000729FBB27F00DB11D639FAA27F00DB11D4D
:10075000AA1F649F6627B00DA11D661F829F2227D6
:10076000B00DA11D621F739FB00DA11D621F839F5D
:10077000A00D611D221F749F3327A00D611D231F33
:10078000849F600D211D822F762F6A2F11249F5781
:1007900050408AF0E1F088234AF0EE0FFF1FBB1FA4
:1007A000661F771F881F91505040A9F79E3F510543
:1007B00070F060CFAACF5F3FECF3983EDCF38695F4
:1007C00077956795B795F795E7959F5FC1F7FE2BEE
:1007D000880F911D9695879597F90895F894FFCF06
:00000001FF
